{
  "_format": "hh3-artifact-1",
  "contractName": "LiskGarden",
  "sourceName": "contracts/LiskGarden.sol",
  "abi": [
    {
      "inputs": [],
      "stateMutability": "nonpayable",
      "type": "constructor"
    },
    {
      "anonymous": false,
      "inputs": [
        {
          "indexed": true,
          "internalType": "uint256",
          "name": "plantId",
          "type": "uint256"
        },
        {
          "indexed": false,
          "internalType": "uint8",
          "name": "waterLevel",
          "type": "uint8"
        }
      ],
      "name": "PlantDied",
      "type": "event"
    },
    {
      "anonymous": false,
      "inputs": [
        {
          "indexed": true,
          "internalType": "uint256",
          "name": "plantId",
          "type": "uint256"
        },
        {
          "indexed": false,
          "internalType": "uint8",
          "name": "waterLevel",
          "type": "uint8"
        }
      ],
      "name": "PlantHarvested",
      "type": "event"
    },
    {
      "anonymous": false,
      "inputs": [
        {
          "indexed": true,
          "internalType": "address",
          "name": "owner",
          "type": "address"
        },
        {
          "indexed": true,
          "internalType": "uint256",
          "name": "plantId",
          "type": "uint256"
        }
      ],
      "name": "PlantSeeded",
      "type": "event"
    },
    {
      "anonymous": false,
      "inputs": [
        {
          "indexed": true,
          "internalType": "uint256",
          "name": "plantId",
          "type": "uint256"
        },
        {
          "indexed": false,
          "internalType": "uint8",
          "name": "waterLevel",
          "type": "uint8"
        }
      ],
      "name": "PlantStageAdvanced",
      "type": "event"
    },
    {
      "anonymous": false,
      "inputs": [
        {
          "indexed": true,
          "internalType": "uint256",
          "name": "plantId",
          "type": "uint256"
        },
        {
          "indexed": false,
          "internalType": "uint8",
          "name": "waterLevel",
          "type": "uint8"
        }
      ],
      "name": "PlantWatered",
      "type": "event"
    },
    {
      "inputs": [],
      "name": "HARVEST_REWARD",
      "outputs": [
        {
          "internalType": "uint256",
          "name": "",
          "type": "uint256"
        }
      ],
      "stateMutability": "view",
      "type": "function"
    },
    {
      "inputs": [],
      "name": "PLANT_PRICE",
      "outputs": [
        {
          "internalType": "uint256",
          "name": "",
          "type": "uint256"
        }
      ],
      "stateMutability": "view",
      "type": "function"
    },
    {
      "inputs": [],
      "name": "STAGE_DURATION",
      "outputs": [
        {
          "internalType": "uint8",
          "name": "",
          "type": "uint8"
        }
      ],
      "stateMutability": "view",
      "type": "function"
    },
    {
      "inputs": [],
      "name": "WATER_DEPLETION_RATE",
      "outputs": [
        {
          "internalType": "uint8",
          "name": "",
          "type": "uint8"
        }
      ],
      "stateMutability": "view",
      "type": "function"
    },
    {
      "inputs": [],
      "name": "WATER_DEPLETION_TIME",
      "outputs": [
        {
          "internalType": "uint8",
          "name": "",
          "type": "uint8"
        }
      ],
      "stateMutability": "view",
      "type": "function"
    },
    {
      "inputs": [
        {
          "internalType": "uint256",
          "name": "plantId",
          "type": "uint256"
        }
      ],
      "name": "calculateWaterLevel",
      "outputs": [
        {
          "internalType": "uint8",
          "name": "",
          "type": "uint8"
        }
      ],
      "stateMutability": "view",
      "type": "function"
    },
    {
      "inputs": [],
      "name": "currentStage",
      "outputs": [
        {
          "internalType": "enum LiskGarden.GrowthStage",
          "name": "",
          "type": "uint8"
        }
      ],
      "stateMutability": "view",
      "type": "function"
    },
    {
      "inputs": [
        {
          "internalType": "uint256",
          "name": "plantId",
          "type": "uint256"
        }
      ],
      "name": "exists",
      "outputs": [
        {
          "internalType": "bool",
          "name": "",
          "type": "bool"
        }
      ],
      "stateMutability": "view",
      "type": "function"
    },
    {
      "inputs": [
        {
          "internalType": "uint256",
          "name": "plantId",
          "type": "uint256"
        }
      ],
      "name": "getPlant",
      "outputs": [
        {
          "components": [
            {
              "internalType": "uint256",
              "name": "id",
              "type": "uint256"
            },
            {
              "internalType": "address",
              "name": "owner",
              "type": "address"
            },
            {
              "internalType": "enum LiskGarden.GrowthStage",
              "name": "stage",
              "type": "uint8"
            },
            {
              "internalType": "uint256",
              "name": "plantedDate",
              "type": "uint256"
            },
            {
              "internalType": "uint256",
              "name": "lastWatered",
              "type": "uint256"
            },
            {
              "internalType": "uint8",
              "name": "waterLevel",
              "type": "uint8"
            },
            {
              "internalType": "bool",
              "name": "exists",
              "type": "bool"
            },
            {
              "internalType": "bool",
              "name": "isDead",
              "type": "bool"
            }
          ],
          "internalType": "struct LiskGarden.plant",
          "name": "",
          "type": "tuple"
        }
      ],
      "stateMutability": "view",
      "type": "function"
    },
    {
      "inputs": [
        {
          "internalType": "address",
          "name": "user",
          "type": "address"
        }
      ],
      "name": "getUserPlants",
      "outputs": [
        {
          "internalType": "uint256[]",
          "name": "",
          "type": "uint256[]"
        }
      ],
      "stateMutability": "view",
      "type": "function"
    },
    {
      "inputs": [
        {
          "internalType": "uint256",
          "name": "plantId",
          "type": "uint256"
        }
      ],
      "name": "harvestPlant",
      "outputs": [],
      "stateMutability": "nonpayable",
      "type": "function"
    },
    {
      "inputs": [],
      "name": "owner",
      "outputs": [
        {
          "internalType": "address",
          "name": "",
          "type": "address"
        }
      ],
      "stateMutability": "view",
      "type": "function"
    },
    {
      "inputs": [],
      "name": "plantCounter",
      "outputs": [
        {
          "internalType": "uint256",
          "name": "",
          "type": "uint256"
        }
      ],
      "stateMutability": "view",
      "type": "function"
    },
    {
      "inputs": [],
      "name": "plantSeed",
      "outputs": [
        {
          "internalType": "uint256",
          "name": "",
          "type": "uint256"
        }
      ],
      "stateMutability": "payable",
      "type": "function"
    },
    {
      "inputs": [
        {
          "internalType": "uint256",
          "name": "",
          "type": "uint256"
        }
      ],
      "name": "plants",
      "outputs": [
        {
          "internalType": "uint256",
          "name": "id",
          "type": "uint256"
        },
        {
          "internalType": "address",
          "name": "owner",
          "type": "address"
        },
        {
          "internalType": "enum LiskGarden.GrowthStage",
          "name": "stage",
          "type": "uint8"
        },
        {
          "internalType": "uint256",
          "name": "plantedDate",
          "type": "uint256"
        },
        {
          "internalType": "uint256",
          "name": "lastWatered",
          "type": "uint256"
        },
        {
          "internalType": "uint8",
          "name": "waterLevel",
          "type": "uint8"
        },
        {
          "internalType": "bool",
          "name": "exists",
          "type": "bool"
        },
        {
          "internalType": "bool",
          "name": "isDead",
          "type": "bool"
        }
      ],
      "stateMutability": "view",
      "type": "function"
    },
    {
      "inputs": [
        {
          "internalType": "uint256",
          "name": "plantId",
          "type": "uint256"
        }
      ],
      "name": "updatePlantStage",
      "outputs": [],
      "stateMutability": "nonpayable",
      "type": "function"
    },
    {
      "inputs": [
        {
          "internalType": "address",
          "name": "",
          "type": "address"
        },
        {
          "internalType": "uint256",
          "name": "",
          "type": "uint256"
        }
      ],
      "name": "userPlants",
      "outputs": [
        {
          "internalType": "uint256",
          "name": "",
          "type": "uint256"
        }
      ],
      "stateMutability": "view",
      "type": "function"
    },
    {
      "inputs": [
        {
          "internalType": "uint256",
          "name": "plantId",
          "type": "uint256"
        }
      ],
      "name": "waterPlant",
      "outputs": [],
      "stateMutability": "nonpayable",
      "type": "function"
    },
    {
      "inputs": [],
      "name": "withdraw",
      "outputs": [],
      "stateMutability": "nonpayable",
      "type": "function"
    },
    {
      "stateMutability": "payable",
      "type": "receive"
    }
  ],
  "bytecode": "0x6080604052348015600e575f5ffd5b50600280546001600160a01b0319163317905561128e8061002e5f395ff3fe608060405260043610610113575f3560e01c80638aee578b1161009d578063bacb5ebd11610062578063bacb5ebd1461036b578063cfc9a5f81461037f578063ddd4259614610399578063e38f8448146103b8578063ed0b1f5f146103d7575f5ffd5b80638aee578b1461025e5780638da5cb5b1461027d5780638dd2361c146102b45780639886bcfa146103375780639c47174914610356575f5ffd5b80635bf5d54c116100e35780635bf5d54c146101d557806374119a38146101fb578063754e150d146102115780637ed4c5be14610230578063891c078514610244575f5ffd5b806330cec0eb1461011e5780633ccfd60b146101535780634f558e791461016957806351f9efde146101af575f5ffd5b3661011a57005b5f5ffd5b348015610129575f5ffd5b5061013d610138366004610fe9565b610403565b60405161014a9190611009565b60405180910390f35b34801561015e575f5ffd5b5061016761046c565b005b348015610174575f5ffd5b5061019f61018336600461104b565b5f90815260208190526040902060040154610100900460ff1690565b604051901515815260200161014a565b3480156101ba575f5ffd5b506101c3603c81565b60405160ff909116815260200161014a565b3480156101e0575f5ffd5b506004546101ee9060ff1681565b60405161014a9190611096565b61020361054d565b60405190815260200161014a565b34801561021c575f5ffd5b506101c361022b36600461104b565b6106d3565b34801561023b575f5ffd5b506101c3601e81565b34801561024f575f5ffd5b50610203660aa87bee53800081565b348015610269575f5ffd5b506102036102783660046110aa565b61081d565b348015610288575f5ffd5b5060025461029c906001600160a01b031681565b6040516001600160a01b03909116815260200161014a565b3480156102bf575f5ffd5b506103236102ce36600461104b565b5f602081905290815260409020805460018201546002830154600384015460049094015492936001600160a01b0383169360ff600160a01b909404841693818116916101008104821691620100009091041688565b60405161014a9897969594939291906110d2565b348015610342575f5ffd5b5061016761035136600461104b565b610848565b348015610361575f5ffd5b5061020360035481565b348015610376575f5ffd5b506101c3600281565b34801561038a575f5ffd5b5061020366038d7ea4c6800081565b3480156103a4575f5ffd5b506101676103b336600461104b565b6109b7565b3480156103c3575f5ffd5b506101676103d236600461104b565b610bb3565b3480156103e2575f5ffd5b506103f66103f136600461104b565b610e1e565b60405161014a9190611127565b6001600160a01b0381165f9081526001602090815260409182902080548351818402810184019094528084526060939283018282801561046057602002820191905f5260205f20905b81548152602001906001019080831161044c575b50505050509050919050565b6002546001600160a01b031633146104b95760405162461bcd60e51b815260206004820152600b60248201526a213ab5b0b71037bbb732b960a91b60448201526064015b60405180910390fd5b6002546040515f916001600160a01b03169047908381818185875af1925050503d805f8114610503576040519150601f19603f3d011682016040523d82523d5f602084013e610508565b606091505b505090508061054a5760405162461bcd60e51b815260206004820152600e60248201526d151c985b9cd9995c8819d859d85b60921b60448201526064016104b0565b50565b5f66038d7ea4c68000341015610561575f5ffd5b60038054905f610570836111b2565b90915550506040805161010081018252600380548083523360208085019182525f85870181815242606088018190526080880152606460a0880152600160c0880181905260e08801839052948252918190529590952084518155905191810180546001600160a01b039093166001600160a01b03198416811782559551949586959294929391926001600160a81b03199092161790600160a01b90849081111561061c5761061c611062565b021790555060608201516002820155608082015160038083019190915560a08301516004909201805460c085015160e0909501511515620100000262ff0000199515156101000261ffff1990921660ff90951694909417179390931691909117909155335f81815260016020818152604080842086548154948501825590855291842090920155925492517f4f5b22082ac57121703b0b6c1203ef527cfbfa5069616fee6deb979d124adbf09190a3505060035490565b5f818152602081815260408083208151610100810183528154815260018201546001600160a01b0381169482019490945284939092830190600160a01b900460ff16600381111561072657610726611062565b600381111561073757610737611062565b8152600282015460208201526003820154604082015260049091015460ff808216606084015261010082048116151560808401526201000090910416151560a090910152905061079e835f9081526020819052604090206004015460ff6101009091041690565b15806107ab57508060e001515b156107b857505f92915050565b5f8160800151426107c991906111ca565b90505f6107d7601e836111f1565b90505f6107e5600283611204565b90508360a0015160ff16811061080057505f95945050505050565b808460a0015160ff1661081391906111ca565b9695505050505050565b6001602052815f5260405f208181548110610836575f80fd5b905f5260205f20015f91509150505481565b5f81815260208190526040902060040154610100900460ff166108a45760405162461bcd60e51b8152602060048201526014602482015273141b185b9d08191bd95cc81b9bdd08195e1a5cdd60621b60448201526064016104b0565b5f818152602081905260409020600101546001600160a01b031633146108fe5760405162461bcd60e51b815260206004820152600f60248201526e2737ba10383630b73a1037bbb732b960891b60448201526064016104b0565b5f8181526020819052604090206004015462010000900460ff16156109555760405162461bcd60e51b815260206004820152600d60248201526c141b185b9d081a5cc819195859609a1b60448201526064016104b0565b5f818152602081815260409182902060048101805460ff1916606490811790915542600390920191909155915191825282917fd4b742b9ba48fffa1f14267075a7793851770764117c423fd0a6550dfc8cb574910160405180910390a261054a815b5f81815260208190526040902060040154610100900460ff16610a135760405162461bcd60e51b8152602060048201526014602482015273141b185b9d08191bd95cc81b9bdd08195e1a5cdd60621b60448201526064016104b0565b610a1c81610f1e565b5f8181526020819052604090206004015462010000900460ff1615610a3e5750565b5f81815260208190526040812060020154610a5990426111ca565b5f83815260208190526040902060010154909150600160a01b900460ff16610a83603c600261121b565b60ff168210610aba575f83815260208190526040902060010180546003919060ff60a01b1916600160a01b835b0217905550610b21565b603c8210610aea575f83815260208190526040902060010180546002919060ff60a01b1916600160a01b83610ab0565b610af66002603c611237565b60ff168210610b21575f838152602081905260409020600101805460ff60a01b1916600160a01b1790555b5f83815260208190526040902060010154600160a01b900460ff166003811115610b4d57610b4d611062565b816003811115610b5f57610b5f611062565b14610bae575f838152602081815260409182902060040154915160ff909216825284917fb43f1d8bd2f9b8a79ac6d83b746012004edf921664debc7eb8a9f97a9899fc1f910160405180910390a25b505050565b5f818152602081905260409020600101546001600160a01b03163314610c095760405162461bcd60e51b815260206004820152600b60248201526a213ab5b0b71037bbb732b960a91b60448201526064016104b0565b5f81815260208190526040902060040154610100900460ff16610c625760405162461bcd60e51b81526020600482015260116024820152702a34b230b59030b230903a30b730b6b0b760791b60448201526064016104b0565b5f8181526020819052604090206004015462010000900460ff1615610cbe5760405162461bcd60e51b815260206004820152601260248201527154616e616d616e207375646168206d61746960701b60448201526064016104b0565b60035f82815260208190526040902060010154600160a01b900460ff166003811115610cec57610cec611062565b14610d395760405162461bcd60e51b815260206004820152601a60248201527f54616e616d616e2062656c756d206269736120646970616e656e00000000000060448201526064016104b0565b5f8181526020818152604091829020600401805461ff00198116909155915160ff909216825282917f1ba6bd69997c99bef77e01539ed3a971a0448ac5fb39640f96a5171bd664454d910160405180910390a26040515f903390660aa87bee538000908381818185875af1925050503d805f8114610dd2576040519150601f19603f3d011682016040523d82523d5f602084013e610dd7565b606091505b5050905080610e1a5760405162461bcd60e51b815260206004820152600f60248201526e151c985b9cd9995c8819985a5b1959608a1b60448201526064016104b0565b5050565b60408051610100810182525f80825260208201819052918101829052606081018290526080810182905260a0810182905260c0810182905260e08101919091525f828152602081815260408083208151610100810183528154815260018201546001600160a01b03811694820194909452929091830190600160a01b900460ff166003811115610eb057610eb0611062565b6003811115610ec157610ec1611062565b8152600282015460208201526003820154604082015260049091015460ff808216606084015261010082048116151560808401526201000090910416151560a0909101529050610f10836106d3565b60ff1660a082015292915050565b5f610f28826106d3565b5f838152602081905260409020600401805460ff191660ff8316908117909155909150158015610f6f57505f8281526020819052604090206004015462010000900460ff16155b15610e1a575f8281526020818152604091829020600401805462ff0000191662010000179055905160ff8316815283917f667028a434ded1d427e2f83983a806f5f346d66e7a581310244b3597365b600a910160405180910390a25050565b80356001600160a01b0381168114610fe4575f5ffd5b919050565b5f60208284031215610ff9575f5ffd5b61100282610fce565b9392505050565b602080825282518282018190525f918401906040840190835b81811015611040578351835260209384019390920191600101611022565b509095945050505050565b5f6020828403121561105b575f5ffd5b5035919050565b634e487b7160e01b5f52602160045260245ffd5b6004811061109257634e487b7160e01b5f52602160045260245ffd5b9052565b602081016110a48284611076565b92915050565b5f5f604083850312156110bb575f5ffd5b6110c483610fce565b946020939093013593505050565b8881526001600160a01b038816602082015261010081016110f66040830189611076565b6060820196909652608081019490945260ff9290921660a0840152151560c0830152151560e0909101529392505050565b815181526020808301516001600160a01b03169082015260408083015161010083019161115690840182611076565b50606083015160608301526080830151608083015260ff60a08401511660a083015260c0830151151560c083015260e083015161119760e084018215159052565b5092915050565b634e487b7160e01b5f52601160045260245ffd5b5f600182016111c3576111c361119e565b5060010190565b818103818111156110a4576110a461119e565b634e487b7160e01b5f52601260045260245ffd5b5f826111ff576111ff6111dd565b500490565b80820281158282048414176110a4576110a461119e565b60ff81811683821602908116908181146111975761119761119e565b5f60ff831680611249576112496111dd565b8060ff8416049150509291505056fea264697066735822122044fdc637fb9a961b778114cc2af78ff53bb0fb1c4f1ed4dd33b794bd9e6a291964736f6c634300081e0033",
  "linkReferences": {},
  "deployedLinkReferences": {},
  "immutableReferences": {},
  "inputSourceName": "project/contracts/LiskGarden.sol",
  "buildInfoId": "solc-0_8_30-3772db45044db4f4529f915b455044318d28e9cc"
}