{
  "_format": "hh3-artifact-1",
  "contractName": "StandardToken",
  "sourceName": "contracts/StandardToken.sol",
  "abi": [
    {
      "inputs": [
        {
          "internalType": "string",
          "name": "_name",
          "type": "string"
        },
        {
          "internalType": "string",
          "name": "_symbol",
          "type": "string"
        },
        {
          "internalType": "uint8",
          "name": "_decimals",
          "type": "uint8"
        },
        {
          "internalType": "uint256",
          "name": "_initialSupply",
          "type": "uint256"
        }
      ],
      "stateMutability": "nonpayable",
      "type": "constructor"
    },
    {
      "anonymous": false,
      "inputs": [
        {
          "indexed": true,
          "internalType": "address",
          "name": "from",
          "type": "address"
        },
        {
          "indexed": true,
          "internalType": "address",
          "name": "to",
          "type": "address"
        },
        {
          "indexed": false,
          "internalType": "uint256",
          "name": "value",
          "type": "uint256"
        }
      ],
      "name": "Transfer",
      "type": "event"
    },
    {
      "inputs": [
        {
          "internalType": "address",
          "name": "_owner",
          "type": "address"
        }
      ],
      "name": "balanceOf",
      "outputs": [
        {
          "internalType": "uint256",
          "name": "",
          "type": "uint256"
        }
      ],
      "stateMutability": "view",
      "type": "function"
    },
    {
      "inputs": [
        {
          "internalType": "address",
          "name": "",
          "type": "address"
        }
      ],
      "name": "balances",
      "outputs": [
        {
          "internalType": "uint256",
          "name": "",
          "type": "uint256"
        }
      ],
      "stateMutability": "view",
      "type": "function"
    },
    {
      "inputs": [],
      "name": "decimals",
      "outputs": [
        {
          "internalType": "uint8",
          "name": "",
          "type": "uint8"
        }
      ],
      "stateMutability": "view",
      "type": "function"
    },
    {
      "inputs": [],
      "name": "name",
      "outputs": [
        {
          "internalType": "string",
          "name": "",
          "type": "string"
        }
      ],
      "stateMutability": "view",
      "type": "function"
    },
    {
      "inputs": [],
      "name": "symbol",
      "outputs": [
        {
          "internalType": "string",
          "name": "",
          "type": "string"
        }
      ],
      "stateMutability": "view",
      "type": "function"
    },
    {
      "inputs": [],
      "name": "totalSupply",
      "outputs": [
        {
          "internalType": "uint256",
          "name": "",
          "type": "uint256"
        }
      ],
      "stateMutability": "view",
      "type": "function"
    },
    {
      "inputs": [
        {
          "internalType": "address",
          "name": "_to",
          "type": "address"
        },
        {
          "internalType": "uint256",
          "name": "_value",
          "type": "uint256"
        }
      ],
      "name": "transfer",
      "outputs": [
        {
          "internalType": "bool",
          "name": "",
          "type": "bool"
        }
      ],
      "stateMutability": "nonpayable",
      "type": "function"
    }
  ],
  "bytecode": "0x608060405234801561000f575f5ffd5b5060405161077738038061077783398101604081905261002e91610144565b5f610039858261024b565b506001610046848261024b565b506002805460ff191660ff8416179055335f8181526003602090815260408083208590556004859055518481527fddf252ad1be2c89b69c2b068fc378daa952ba7f163c4a11628f55a4df523b3ef910160405180910390a350505050610305565b634e487b7160e01b5f52604160045260245ffd5b5f82601f8301126100ca575f5ffd5b81516001600160401b038111156100e3576100e36100a7565b604051601f8201601f19908116603f011681016001600160401b0381118282101715610111576101116100a7565b604052818152838201602001851015610128575f5ffd5b8160208501602083015e5f918101602001919091529392505050565b5f5f5f5f60808587031215610157575f5ffd5b84516001600160401b0381111561016c575f5ffd5b610178878288016100bb565b602087015190955090506001600160401b03811115610195575f5ffd5b6101a1878288016100bb565b935050604085015160ff811681146101b7575f5ffd5b6060959095015193969295505050565b600181811c908216806101db57607f821691505b6020821081036101f957634e487b7160e01b5f52602260045260245ffd5b50919050565b601f82111561024657805f5260205f20601f840160051c810160208510156102245750805b601f840160051c820191505b81811015610243575f8155600101610230565b50505b505050565b81516001600160401b03811115610264576102646100a7565b6102788161027284546101c7565b846101ff565b6020601f8211600181146102aa575f83156102935750848201515b5f19600385901b1c1916600184901b178455610243565b5f84815260208120601f198516915b828110156102d957878501518255602094850194600190920191016102b9565b50848210156102f657868401515f19600387901b60f8161c191681555b50505050600190811b01905550565b610465806103125f395ff3fe608060405234801561000f575f5ffd5b506004361061007a575f3560e01c8063313ce56711610058578063313ce567146100d257806370a08231146100f157806395d89b4114610119578063a9059cbb14610121575f5ffd5b806306fdde031461007e57806318160ddd1461009c57806327e235e3146100b3575b5f5ffd5b610086610144565b6040516100939190610325565b60405180910390f35b6100a560045481565b604051908152602001610093565b6100a56100c1366004610375565b60036020525f908152604090205481565b6002546100df9060ff1681565b60405160ff9091168152602001610093565b6100a56100ff366004610375565b6001600160a01b03165f9081526003602052604090205490565b6100866101cf565b61013461012f366004610395565b6101dc565b6040519015158152602001610093565b5f8054610150906103bd565b80601f016020809104026020016040519081016040528092919081815260200182805461017c906103bd565b80156101c75780601f1061019e576101008083540402835291602001916101c7565b820191905f5260205f20905b8154815290600101906020018083116101aa57829003601f168201915b505050505081565b60018054610150906103bd565b335f908152600360205260408120548211156102365760405162461bcd60e51b8152602060048201526014602482015273496e73756666696369656e742062616c616e636560601b60448201526064015b60405180910390fd5b6001600160a01b03831661028c5760405162461bcd60e51b815260206004820152601f60248201527f43616e6e6f74207472616e7366657220746f207a65726f206164647265737300604482015260640161022d565b335f90815260036020526040812080548492906102aa908490610409565b90915550506001600160a01b0383165f90815260036020526040812080548492906102d690849061041c565b90915550506040518281526001600160a01b0384169033907fddf252ad1be2c89b69c2b068fc378daa952ba7f163c4a11628f55a4df523b3ef9060200160405180910390a35060015b92915050565b602081525f82518060208401528060208501604085015e5f604082850101526040601f19601f83011684010191505092915050565b80356001600160a01b0381168114610370575f5ffd5b919050565b5f60208284031215610385575f5ffd5b61038e8261035a565b9392505050565b5f5f604083850312156103a6575f5ffd5b6103af8361035a565b946020939093013593505050565b600181811c908216806103d157607f821691505b6020821081036103ef57634e487b7160e01b5f52602260045260245ffd5b50919050565b634e487b7160e01b5f52601160045260245ffd5b8181038181111561031f5761031f6103f5565b8082018082111561031f5761031f6103f556fea26469706673582212200d9ad423e4e9d6a11d6f0ad1ba937e005fca9ec193b8876d7a7ea2f4c65bf0c164736f6c634300081e0033",
  "linkReferences": {},
  "deployedLinkReferences": {},
  "immutableReferences": {},
  "inputSourceName": "project/contracts/StandardToken.sol",
  "buildInfoId": "solc-0_8_30-23ece9722215f8fed7fa55e03b2e7b9a22a6294b"
}